:10000000D7C01EC1F0C0EFC0EEC0EDC0ECC0EBC069
:10001000EAC0E9C0E8C0E7C0E6C0E5C0E4C0050149
:100020000906A10175019508050719E029E71500E2
:100030002501810295017508810395057501050863
:10004000190129059102950175039103950675081B
:10005000150025650507190029658100C0467261F4
:100060006E6B205A68616F0A0A456D61696C3A20AF
:10007000636F6E74616374406672616E6B2D7A6833
:10008000616F2E636F6D0A576562736974653A20FC
:10009000687474703A2F2F7777772E6672616E6B63
:1000A0002D7A68616F2E636F6D2F0A506C656173D6
:1000B0006520636F6E74616374206D6520666F7276
:1000C000206120726573756D650A0A4578706572E6
:1000D00069656E63656420696E3A0A2A20656C65FD
:1000E0006374726F6E6963732064657369676E0A07
:1000F0002A206D756C7469706C652070726F677200
:10010000616D6D696E67206C616E6775616765739F
:100110000A2A207765622064657369676E20616EC4
:100120006420646576656C6F706D656E74000403A1
:10013000090426037700770077002E00660072001E
:1001400061006E006B002D007A00680061006F0096
:100150002E0063006F006D00240355005300420021
:10016000200042007500730069006E006500730096
:10017000730020004300610072006400120110014E
:100180000000000816090213000101020001090223
:100190002200010100803209040000010301010076
:1001A000092101010001223F000705810308000A1F
:1001B00011241FBECFE5D2E0DEBFCDBF10E0A0E628
:1001C000B0E0E2EDFCE002C005900D92A237B1076D
:1001D000D9F710E0A2E7B0E001C01D92AB3BB10738
:1001E000E1F7ECD204C50CCFA82FB92F80E090E046
:1001F00041E050EA609530E009C02D918227979543
:10020000879510F084279527305EC8F36F5FA8F3B9
:100210000895EADF8D939D930895A6E08827992796
:10022000AA9569F00197E1F3B099FCCFB09BFECF9E
:1002300081E09927A6B3019611F0A570D9F708952A
:10024000CF93CFB7CF93C395B09BE9F7B09B0BC0CB
:10025000B09B09C0B09B07C0B09B05C0B09B03C05A
:10026000B09B01C0D5C00F92DF93C0919800DD27ED
:10027000C156DF4F012EB09B03C0DF910F90E6CF38
:100280002F930F931F934F932FEF4F6F06B300FBE6
:1002900020F95F933F9350E03BE065C016B3012621
:1002A000502950FDC89556B3012700FB25F92F733F
:1002B00006B3B1F05027102710FB26F906B2223002
:1002C000F0F000C016B3012700FB27F901265029E2
:1002D00006B22430E8F54F77206816B30000F6CF59
:1002E00050274F7D206206B2102F000000C006B3D9
:1002F00000265029102710FB26F906B2E2CF4F7BCB
:1003000006B3206400C0DACF01265029157006B26A
:1003100069F14E7F2160012F16B328C000265029B5
:100320004D7F06B22260102F29C0012650294B7F35
:1003300006B22460012F2DC016B301265029477F35
:100340002860000006B22EC04F7E06B3206130C088
:10035000422706B3499300265029102706B24FEFD3
:1003600010FB20F9297F16B379F2157059F1012697
:10037000502906B2012700FB21F9237F06B371F251
:10038000002650293150D0F006B2102710FB22F978
:10039000277E16B351F201265029012700FB06B231
:1003A00023F92F7C49F2000006B3102710FB24F933
:1003B0000026502906B22F7939F270CF10E41ABF07
:1003C000002719C03B503195C31BD04010E41ABF21
:1003D0000881033C09F10B34F9F020919600198152
:1003E000110F1213EDCF4A81441F093651F10D321E
:1003F00011F0013E29F700939D003F915F914F91CD
:100400001F910F912F91DF910F90CAB7C6FD1BCF9F
:10041000CF91CFBFCF91189520919D00222369F3F2
:1004200010919B00112379F534307AF130939B00C1
:1004300020939700109198003BE0311B3093980077
:1004400024C000919B000130F4F40AE54F7049F498
:1004500030916F0034FD1AC000936F00CFE7D0E0F9
:1004600019C030918A0034FD11C000938A00CBE896
:10047000D0E010C0052710E000C021C0052710E023
:10048000C89508BB14C03AE501C032ED032EC0E0A8
:10049000D0E032E017B31560C09A08B317BB55E03F
:1004A00020E84FEF20FF052708BB279517951C3F35
:1004B00028F700004552B0F720FF0527279508BB15
:1004C00017951C3FB8F629913A9561F70A7F10916C
:1004D0009C00110F08BBC250D04011F01093960041
:1004E00010E41ABF016017B31A7F402F4A7F54E00F
:1004F0005A95F1F708BB17BB48BB7FCFFC01808141
:1005000080768032A1F581818330A9F0843028F48F
:100510008130F1F0823059F507C08A3041F08B30DC
:1005200091F0893021F51CC08EE690E006C08381F1
:1005300080936E000BC084E790E090939A008093C4
:10054000990081E0089583818093740080E008958C
:1005500085E790E090939A008093990088E0089551
:10056000868197818130910511F48FEF089580E0A5
:100570000895FC01908180917300981739F0809163
:1005800072008A3008F48F5F80937200909373003A
:1005900081E008951092770010927500982F915481
:1005A0009A3140F48D53809377008091730081FDE0
:1005B00004C10BC0982F91569A3170F48D558093D9
:1005C00077008091730081FF04C082E08093750002
:1005D0000895109275000895982F90539A3038F42A
:1005E00010927500803309F4A6C08351E0C08A33AD
:1005F00009F4C1C08B33D0F5873209F4C4C0883206
:10060000E0F4833209F471C0843280F4813209F459
:1006100062C0823208F0B4C0803209F4C5C08930AB
:1006200009F4C4C08A3009F0C8C0C4C0853209F4D6
:1006300066C0863208F06DC05DC08B3209F487C099
:100640008C3238F4893209F473C08A3208F066C0FB
:100650006AC08D3209F479C08D3208F499C08E32A7
:1006600009F49BC08F3209F0A8C09CC08C3509F4F6
:1006700080C08D35A8F48E3309F48CC08F3338F4E4
:100680008C3309F482C08D3308F064C077C08034A5
:1006900039F1803408F483C08B3509F08EC05FC017
:1006A000803609F44DC0813630F48E3569F18F35CE
:1006B00008F048C059C08C3709F458C08D3720F471
:1006C0008B3709F07AC048C08D3709F44AC08E379D
:1006D00009F073C032C082E0809375008EE167C07C
:1006E00082E0809375008FE162C082E080937500A4
:1006F00080E25DC082E08093750081E258C082E0B4
:100700008093750082E253C082E08093750083E29B
:100710004EC082E08093750084E249C082E08093FD
:10072000750085E244C082E08093750086E23FC098
:1007300082E08093750087E23AC082E08093750082
:1007400085E335C082E0809375008DE230C082E0A1
:10075000809375008EE22BC082E0809375008FE25B
:1007600026C082E08093750080E321C082E0809300
:10077000750081E31CC082E08093750083E317C09D
:1007800082E08093750084E312C082E0809375005C
:1007900086E30DC082E08093750087E308C082E0A5
:1007A0008093750088E303C08CE201C08BE28093E4
:1007B0007700089588E280937700089580E090E0C4
:1007C00051D28F3F09F081BF80E690E09093B8004E
:1007D0008093B70010927500109276001092770007
:1007E000109278001092790010927A0010927B009B
:1007F00010927C0088E10FB6F89481BD11BC0FBE49
:10080000B89A89EA95E2A3E081509040A040E1F7D0
:1008100000C00000B89880D0789480917200833036
:1008200028F08DE590E0E5D110927200A8D0F5CFC8
:10083000A6D080918A0084FFFBCF85E790E068E036
:1008400078D00895A7DEF4DF10927500109276003C
:1008500010927700109278001092790010927A002E
:1008600010927B0010927C00E3DF0895AF92BF925C
:10087000CF92DF92EF92FF920F931F93CF93DF936C
:10088000CC24DD24EE2400E8102F1E0D11BFC5DCA2
:10089000A82EE5015E01B92EE50199E0C433D90720
:1008A0000CF01E2D06950894C11CD11C88E0C816BA
:1008B000D10411F0E12EE8CF812F815081BFE12ECC
:1008C000FF240894E11CF11C12C0A7DC845399405A
:1008D00097FF03C0909581959F4F8C179D0714F04B
:1008E000CE0101C011B721B72F5F21BFEC0181B745
:1008F00090E0E816F9064CF711BF61B780E090E090
:10090000B9D1DF91CF911F910F91FF90EF90DF90C0
:10091000CF90BF90AF90089585B7826085BF8BB7A9
:1009200080648BBF8BE480938B008AE580938A0080
:1009300008951F93FC01162F80918A0084FF07C041
:1009400080918B0098E8892780938B0003C08AE50B
:1009500080938A00812F815090E083579F4FACE8AD
:10096000B0E021912D93A817B907D9F78CE890E052
:10097000612F4FDC1C5F10938A001F9108951F9315
:10098000CF93DF9360919B00635067FDC4C080915B
:100990009800CCE0D0E0C81BD109C156DF4F809150
:1009A00097008D3209F0A5C0683009F0B2C083EC21
:1009B00080937F008AE580936F0010927E0088818B
:1009C000807631F0CE019ADD8F3F09F481C087C077
:1009D0009A81109288008981882331F410928900CD
:1009E00028E830E082E06FC0853019F490939C00D5
:1009F00067C0863009F04FC08B81813041F48CE7AD
:100A000091E090939A008093990082E140C08230F7
:100A100041F48EE891E090939A008093990082E2ED
:100A200036C08330F9F48A81882341F48EE291E064
:100A300090939A008093990084E029C0813041F41A
:100A400082E391E090939A008093990086E21FC020
:100A50008230E1F488E591E090939A0080939900C8
:100A600084E215C0813241F480EA91E090939A00CB
:100A70008093990089E00BC0823241F48EE190E0CE
:100A800090939A00809399008FE301C080E090E4F6
:100A900090937E0024C0883019F42EE930E009C01C
:100AA000893019F490939E000BC08A3021F428E815
:100AB00030E081E008C08B3019F48BE480938B0028
:100AC00028E830E080E030939A002093990007C036
:100AD000988197FD8E8190E890937E0006C09F815B
:100AE000992319F49E81981708F0982F909370001D
:100AF00010C080917E0087FF0CC0CE013ADD8F3F91
:100B000021F48EE180936F0004C0882311F01092CD
:100B1000700010929B0080916F0084FF4DC0809107
:100B200070008F3F09F448C0182F893008F018E092
:100B3000811B8093700080917F0098E889278093C3
:100B40007F00112369F12091990030919A009091D2
:100B50007E00812F815096FF10C090E0BC016F573E
:100B60007F4FA901C0E8D0E0FA01A491A9934F5F9B
:100B70005F4FC617D707C1F70CC090E0AC014F57C5
:100B80005F4FD901E0E8F0E06D916193E417F5075C
:100B9000D9F70196820F931F90939A008093990042
:100BA00080E890E0612F35DB1C5F1C3019F08FEF7F
:100BB0008093700010936F0084E196B3957031F4C8
:100BC0008150D9F710929C001092960010E0882373
:100BD00009F411E080917D00811729F0112309F4B7
:100BE00045DE10937D00DF91CF911F910895F89419
:100BF0006EC0EF92FF920F931F93CF93DF938C0100
:100C0000E091B700F091B800838181FF24C0C0E07B
:100C1000D0E010C06091B7007091B800DB01189669
:100C2000ED91FC9119970995009711F0CFEFDFEF47
:100C30000F5F1F4FF8018491882361F76091B7001F
:100C40007091B800DB011896ED91FC9119978AE03C
:100C50000995009711F0CFEFDFEFCE01CDB7DEB7EA
:100C6000E6E026C0E199FECF9FBB8EBBE09A9927B4
:100C70008DB30895262FE199FECF9FBB8EBBE09ADE
:100C800001970DB2021639F01CBA2DBB0FB6F894BD
:100C9000E29AE19A0FBE08952A88398848885F84CD
:100CA0006E847D848C849B84AA84B984C884DF800C
:100CB000EE80FD800C811B81AA81B981CE0FD11DF0
:100CC0000FB6F894DEBF0FBECDBFED010895F894C6
:020CD000FFCF54
:100CD20000000002000000002204000000007D5A13
:020CE200FF0011
:00000001FF
